:100000000C9446000C945D000C945D000C945D0013
:100010000C945D000C945D000C945D000C945D00EC
:100020000C945D000C945D000C945D000C945D00DC
:100030000C945D000C945D000C945D000C945D00CC
:100040000C945D000C945D000C945D000C945D00BC
:100050000C945D000C945D000C945D000C945D00AC
:100060000C945D000C945D000C945D000C945D009C
:100070000C945D000C945D000C945D000C945D008C
:100080000C945D000C945D000C945D0011241FBE67
:10009000CFEFD0E1DEBFCDBF11E0A0E0B1E0E4E5FD
:1000A000F4E000E00BBF02C007900D92A830B1074A
:1000B000D9F70E945F000C9428020C940000DF9393
:1000C000CF93CDB7DEB76D970FB6F894DEBF0FBEF6
:1000D000CDBFCE0140969A8F898FE0E0F1E0FC8F92
:1000E000EB8FF8E0FD8FEB8DFC8D00808B8D9C8D70
:1000F00001969C8F8B8FE98DFA8D0082898D9A8D68
:1001000001969A8F898F9D8D91509D8FED8DEE2355
:1001100051F7EAE3F0E08FEF8083E2E2F0E08FEF67
:100120008083E3E2F0E080811F8681C0ABE3B0E032
:100130008F85282F30E0CE014096FC01E20FF31F9F
:1001400080818C9380E090E0A8ECB2E48B879C8760
:10015000AD87BE876B857C858D859E8520E030E0F0
:100160004AE753E40E949D01DC01CB018F8398870D
:10017000A987BA876F81788589859A8520E030E0E4
:1001800040E85FE30E941C0188232CF481E090E0AA
:100190009E838D833FC06F81788589859A8520E015
:1001A0003FEF4FE757E40E94990118164CF56B8515
:1001B0007C858D859E8520E030E040E251E40E9400
:1001C0009D01DC01CB01BC01CD010E942001DC01BD
:1001D000CB019E838D830FC089E190E09C838B834C
:1001E0008B819C810197F1F79C838B838D819E810C
:1001F00001979E838D838D819E81009769F714C03E
:100200006F81788589859A850E942001DC01CB0168
:100210009E838D838D819E819A83898389819A8132
:100220000197F1F79A8389838F858F5F8F878F85F9
:10023000883008F47BCF78CF2FD008F481E0089580
:1002400057D088F09F5790F0B92F9927B751A0F059
:10025000D1F0660F771F881F991F1AF0BA95C9F75A
:1002600012C0B13081F05ED0B1E008955BC0672F5D
:10027000782F8827B85F39F0B93FCCF3869577950A
:100280006795B395D9F73EF49095809570956195F3
:100290007F4F8F4F9F4F0895990F0008550FAA0B5E
:1002A000E0E8FEEF16161706E807F907C0F0121689
:1002B0001306E407F50798F0621B730B840B950B8C
:1002C00039F40A2661F0232B242B252B21F40895E1
:1002D0000A2609F4A140A6958FEF811D811D08957E
:1002E00057FD9058440F551F59F05F3F71F04795E7
:1002F000880F97FB991F61F09F3F79F087950895CC
:10030000121613061406551FF2CF4695F1DF08C0EA
:10031000161617061806991FF1CF86957105610507
:1003200008940895E894BB2766277727CB0197F9AF
:100330000895B2DF08F48FEF08950BD078C069D02C
:1003400028F06ED018F0952309F05AC05FC0112430
:10035000EACFC6DFA0F3959FD1F3950F50E0551F6C
:10036000629FF001729FBB27F00DB11D639FAA270A
:10037000F00DB11DAA1F649F6627B00DA11D661F59
:10038000829F2227B00DA11D621F739FB00DA11D7A
:10039000621F839FA00D611D221F749F3327A00D34
:1003A000611D231F849F600D211D822F762F6A2FD0
:1003B00011249F5750408AF0E1F088234AF0EE0F55
:1003C000FF1FBB1F661F771F881F91505040A9F762
:1003D0009E3F510570F014C0A6CF5F3FECF3983EEE
:1003E000DCF3869577956795B795F795E7959F5FC9
:1003F000C1F7FE2B880F911D9695879597F9089563
:1004000097F99F6780E870E060E008959FEF80ECC7
:10041000089500240A94161617061806090608956A
:1004200000240A9412161306140605060895092ED0
:100430000394000C11F4882352F0BB0F40F4BF2B3F
:1004400011F460FF04C06F5F7F4F8F4F9F4F08957F
:04045000F894FFCF4E
:08045400065B4F666D7D077F1A
:00000001FF
