:100000000C9446000C945D000C945D000C945D0013
:100010000C945D000C945D000C945D000C945D00EC
:100020000C945D000C945D000C945D000C945D00DC
:100030000C945D000C945D000C945D000C945D00CC
:100040000C945D000C945D000C945D000C945D00BC
:100050000C945D000C945D000C945D000C945D00AC
:100060000C945D000C945D000C945D000C945D009C
:100070000C945D000C945D000C945D000C945D008C
:100080000C945D000C945D000C945D0011241FBE67
:10009000CFEFD0E1DEBFCDBF11E0A0E0B1E0ECE1F9
:1000A000FEE000E00BBF02C007900D92A831B1073F
:1000B000D9F70E94CB040C940C070C940000DF933A
:1000C000CF93CDB7DEB76C970FB6F894DEBF0FBEF7
:1000D000CDBFE7E3F0E08FEF8083E4E6F0E08FEF61
:1000E000808380E090E0A0EAB1E4898F9A8FAB8FA3
:1000F000BC8F698D7A8D8B8D9C8D20E030E04AE736
:1001000053E40E94A906DC01CB018D8B9E8BAF8B43
:10011000B88F6D897E898F89988D20E030E040E826
:100120005FE30E94980588232CF481E090E09C8B8B
:100130008B8B3FC06D897E898F89988D20E03FEF42
:100140004FE757E40E94A50618164CF5698D7A8D85
:100150008B8D9C8D20E030E040E251E40E94A906A6
:10016000DC01CB01BC01CD010E940406DC01CB0106
:100170009C8B8B8B0FC089E190E09A8B898B89894E
:100180009A890197F1F79A8B898B8B899C890197C2
:100190009C8B8B8B8B899C89009769F714C06D8928
:1001A0007E898F89988D0E940406DC01CB019C8B8F
:1001B0008B8B8B899C89988B8F878F8598890197EA
:1001C000F1F7988B8F8788E390E00E94720188E0B6
:1001D00090E00E94720181E090E00E94720180E054
:1001E00090E0A0E8BFE38B879C87AD87BE876B85D7
:1001F0007C858D859E8520E030E04AE753E40E94AF
:10020000A906DC01CB018F839887A987BA876F8104
:10021000788589859A8520E030E040E85FE30E9498
:10022000980588232CF481E090E09E838D833FC065
:100230006F81788589859A8520E03FEF4FE757E405
:100240000E94A50618164CF56B857C858D859E85CC
:1002500020E030E040E251E40E94A906DC01CB013D
:10026000BC01CD010E940406DC01CB019E838D837D
:100270000FC089E190E09C838B838B819C810197E7
:10028000F1F79C838B838D819E8101979E838D8363
:100290008D819E81009769F714C06F81788589856B
:1002A0009A850E940406DC01CB019E838D838D819B
:1002B0009E819A83898389819A810197F1F79A8334
:1002C000898386E090E00E9472018EE090E00E94B7
:1002D00072016C960FB6F894DEBF0FBECDBFCF9102
:1002E000DF910895DF93CF93CDB7DEB7E1970FB6D7
:1002F000F894DEBF0FBECDBF89ABE5E6F0E084E049
:100300008083E8E3F0E089A9808380E090E0A0E8C2
:10031000BFE38DA79EA7AFA7B8AB6DA57EA58FA5A0
:1003200098A92BEA3AEA4AEA5EE30E94A906DC01B0
:10033000CB0189A79AA7ABA7BCA769A57AA58BA56E
:100340009CA520E030E040E85FE30E949805882308
:100350001CF481E088A791C069A57AA58BA59CA50E
:1003600020E030E04FE753E40E94A50618160CF099
:100370007BC06DA57EA58FA598A920E030E04AE757
:1003800054E40E949C05DC01CB018CA39DA3AEA389
:10039000BFA36CA17DA18EA19FA120E030E04AE720
:1003A00053E40E94A906DC01CB0188A399A3AAA368
:1003B000BBA368A179A18AA19BA120E030E040E81D
:1003C0005FE30E94980588232CF481E090E09F8FE2
:1003D0008E8F3FC068A179A18AA19BA120E03FEF49
:1003E0004FE757E40E94A50618164CF56CA17DA1B5
:1003F0008EA19FA120E030E040E251E40E94A906D6
:10040000DC01CB01BC01CD010E940406DC01CB0163
:100410009F8F8E8F0FC089E190E09D8F8C8F8C8D88
:100420009D8D0197F1F79D8F8C8F8E8D9F8D0197FC
:100430009F8F8E8F8E8D9F8D009769F724C068A146
:1004400079A18AA19BA10E940406DC01CB019F8FA8
:100450008E8F8E8D9F8D9B8F8A8F8A8D9B8D01971E
:10046000F1F79B8F8A8F0FC069A57AA58BA59CA5F4
:100470000E940406DC01CB0188A788A5898F898D9D
:100480008A95F1F7898FE5E6F0E0108280E090E050
:10049000A0E8BFE38D8B9E8BAF8BB88F6D897E8973
:1004A0008F89988D2BEA3AEA4AEA5EE30E94A90610
:1004B000DC01CB01898B9A8BAB8BBC8B69897A89E8
:1004C0008B899C8920E030E040E85FE30E9498053A
:1004D00088231CF481E0888B91C069897A898B8993
:1004E0009C8920E030E04FE753E40E94A5061816EF
:1004F0000CF07BC06D897E898F89988D20E030E07B
:100500004AE754E40E949C05DC01CB018C879D875F
:10051000AE87BF876C857D858E859F8520E030E026
:100520004AE753E40E94A906DC01CB01888799873A
:10053000AA87BB87688579858A859B8520E030E01E
:1005400040E85FE30E94980588232CF481E090E066
:100550009F838E833FC0688579858A859B8520E04F
:100560003FEF4FE757E40E94A50618164CF56C853F
:100570007D858E859F8520E030E040E251E40E9439
:10058000A906DC01CB01BC01CD010E940406DC01FF
:10059000CB019F838E830FC089E190E09D838C8384
:1005A0008C819D810197F1F79D838C838E819F8142
:1005B00001979F838E838E819F81009769F724C066
:1005C000688579858A859B850E940406DC01CB01BC
:1005D0009F838E838E819F819B838A838A819B8167
:1005E0000197F1F79B838A830FC069897A898B8988
:1005F0009C890E940406DC01CB01888B8889898351
:1006000089818A95F1F78983E1960FB6F894DEBF68
:100610000FBECDBFCF91DF910895DF93CF93CDB7BC
:10062000DEB7E1970FB6F894DEBF0FBECDBF89AB42
:10063000E5E6F0E085E08083E8E3F0E089A98083E7
:1006400080E090E0A0E8BFE38DA79EA7AFA7B8AB7E
:100650006DA57EA58FA598A92BEA3AEA4AEA5EE342
:100660000E94A906DC01CB0189A79AA7ABA7BCA76A
:1006700069A57AA58BA59CA520E030E040E85FE362
:100680000E94980588231CF481E088A791C069A581
:100690007AA58BA59CA520E030E04FE753E40E94AB
:1006A000A50618160CF07BC06DA57EA58FA598A990
:1006B00020E030E04AE754E40E949C05DC01CB01D5
:1006C0008CA39DA3AEA3BFA36CA17DA18EA19FA16E
:1006D00020E030E04AE753E40E94A906DC01CB01A8
:1006E00088A399A3AAA3BBA368A179A18AA19BA16E
:1006F00020E030E040E85FE30E94980588232CF476
:1007000081E090E09F8F8E8F3FC068A179A18AA180
:100710009BA120E03FEF4FE757E40E94A506181683
:100720004CF56CA17DA18EA19FA120E030E040E2BC
:1007300051E40E94A906DC01CB01BC01CD010E945D
:100740000406DC01CB019F8F8E8F0FC089E190E002
:100750009D8F8C8F8C8D9D8D0197F1F79D8F8C8F48
:100760008E8D9F8D01979F8F8E8F8E8D9F8D009781
:1007700069F724C068A179A18AA19BA10E940406FF
:10078000DC01CB019F8F8E8F8E8D9F8D9B8F8A8FEB
:100790008A8D9B8D0197F1F79B8F8A8F0FC069A57A
:1007A0007AA58BA59CA50E940406DC01CB0188A735
:1007B00088A5898F898D8A95F1F7898FE5E6F0E024
:1007C00081E0808380E090E0A0E8BFE38D8B9E8B8A
:1007D000AF8BB88F6D897E898F89988D2BEA3AEA25
:1007E0004AEA5EE30E94A906DC01CB01898B9A8B61
:1007F000AB8BBC8B69897A898B899C8920E030E03E
:1008000040E85FE30E94980588231CF481E0888B10
:1008100091C069897A898B899C8920E030E04FE713
:1008200053E40E94A50618160CF07BC06D897E89E2
:100830008F89988D20E030E04AE754E40E949C05BF
:10084000DC01CB018C879D87AE87BF876C857D855A
:100850008E859F8520E030E04AE753E40E94A90698
:10086000DC01CB0188879987AA87BB876885798552
:100870008A859B8520E030E040E85FE30E94980590
:1008800088232CF481E090E09F838E833FC06885AD
:1008900079858A859B8520E03FEF4FE757E40E94EA
:1008A000A50618164CF56C857D858E859F8520E004
:1008B00030E040E251E40E94A906DC01CB01BC011A
:1008C000CD010E940406DC01CB019F838E830FC003
:1008D00089E190E09D838C838C819D810197F1F764
:1008E0009D838C838E819F8101979F838E838E81D0
:1008F0009F81009769F724C0688579858A859B85E3
:100900000E940406DC01CB019F838E838E819F8130
:100910009B838A838A819B810197F1F79B838A83DA
:100920000FC069897A898B899C890E940406DC0141
:10093000CB01888B8889898389818A95F1F789839E
:10094000E1960FB6F894DEBF0FBECDBFCF91DF9119
:100950000895DF93CF9300D00F92CDB7DEB7898390
:100960007B836A8389810E9472010AC0EA81FB81CC
:1009700080810E940D038A819B8101969B838A83DB
:10098000EA81FB818081882389F70F900F900F9077
:10099000CF91DF910895DF93CF93CDB7DEB7AF97B7
:1009A0000FB6F894DEBF0FBECDBF0E945F00CE0130
:1009B0000F969FA38EA3E0E0F1E0F9A7E8A7FCE083
:1009C000FAA7E8A5F9A5008088A599A5019699A799
:1009D00088A7EEA1FFA100828EA19FA101969FA3EF
:1009E0008EA39AA591509AA7EAA5EE2351F7CE01BE
:1009F0004B969CA78BA7ECE0F1E0FEA7EDA7FBE0F0
:100A0000FFA7EDA5FEA500808DA59EA501969EA73A
:100A10008DA7EBA5FCA500828BA59CA501969CA7A4
:100A20008BA79FA591509FA7EFA5EE2351F79E019D
:100A3000215F3F4F80E8B9010E94A9049E01255E15
:100A40003F4F80ECB9010E94A90480E090E0A8EC3F
:100A5000B2E48B879C87AD87BE876B857C858D854F
:100A60009E8520E030E04AE753E40E94A906DC01BD
:100A7000CB018F839887A987BA876F81788589850D
:100A80009A8520E030E040E85FE30E9498058823E3
:100A90002CF481E090E09E838D833FC06F81788548
:100AA00089859A8520E03FEF4FE757E40E94A5062D
:100AB00018164CF56B857C858D859E8520E030E091
:100AC00040E251E40E94A906DC01CB01BC01CD014A
:100AD0000E940406DC01CB019E838D830FC089E157
:100AE00090E09C838B838B819C810197F1F79C83A1
:100AF0008B838D819E8101979E838D838D819E81C5
:100B0000009769F794CF6F81788589859A850E94CF
:100B10000406DC01CB019E838D838D819E819A83A7
:100B2000898389819A810197F1F79A8389837FCF9D
:100B300097D008F481E008950CD0CDC0C5D040F026
:100B4000BCD030F021F45F3F19F0AEC05111F7C0B6
:100B5000B1C0D2D098F39923C9F35523B1F3951BB3
:100B6000550BBB27AA2762177307840738F09F5FCE
:100B70005F4F220F331F441FAA1FA9F333D00E2E3D
:100B80003AF0E0E830D091505040E695001CCAF7AA
:100B900029D0FE2F27D0660F771F881FBB1F26176F
:100BA00037074807AB07B0E809F0BB0B802DBF0142
:100BB000FF2793585F4F2AF09E3F510568F074C09D
:100BC000BEC05F3FECF3983EDCF386957795679562
:100BD000B795F7959F5FC9F7880F911D96958795F3
:100BE00097F90895E1E0660F771F881FBB1F621712
:100BF00073078407BA0720F0621B730B840BBA0BD0
:100C0000EE1F88F7E09508957FD088F09F5790F009
:100C1000B92F9927B751A0F0D1F0660F771F881F21
:100C2000991F1AF0BA95C9F712C0B13081F086D079
:100C3000B1E0089583C0672F782F8827B85F39F017
:100C4000B93FCCF3869577956795B395D9F73EF480
:100C500090958095709561957F4F8F4F9F4F089528
:100C6000990F0008550FAA0BE0E8FEEF16161706BD
:100C7000E807F907C0F012161306E407F50798F025
:100C8000621B730B840B950B39F40A2661F0232B3E
:100C9000242B252B21F408950A2609F4A140A695BA
:100CA0008FEF811D811D089597F99F6780E870E09F
:100CB00060E008959FEF80EC089500240A941616D2
:100CC000170618060906089500240A94121613063A
:100CD000140605060895092E0394000C11F48823C8
:100CE00052F0BB0F40F4BF2B11F460FF04C06F5FE4
:100CF0007F4F8F4F9F4F089557FD9058440F551FBA
:100D000059F05F3F71F04795880F97FB991F61F08D
:100D10009F3F79F087950895121613061406551F04
:100D2000F2CF4695F1DF08C0161617061806991F70
:100D3000F1CF86957105610508940895E894BB2765
:100D400066277727CB0197F908958ADF08F48FEF9C
:100D500008950BD0C0CFB1DF28F0B6DF18F095238F
:100D600009F0A2CFA7CF1124EACFC6DFA0F3959F49
:100D7000D1F3950F50E0551F629FF001729FBB2782
:100D8000F00DB11D639FAA27F00DB11DAA1F649F2E
:100D90006627B00DA11D661F829F2227B00DA11DE1
:100DA000621F739FB00DA11D621F839FA00D611D67
:100DB000221F749F3327A00D611D231F849F600D88
:100DC000211D822F762F6A2F11249F5750408AF0C1
:100DD000E1F088234AF0EE0FFF1FBB1F661F771F4D
:100DE000881F91505040A9F79E3F510570F05CCF8D
:100DF000A6CF5F3FECF3983EDCF386957795679539
:100E0000B795F795E7959F5FC1F7FE2B880F911D6A
:0C0E10009695879597F90895F894FFCF08
:100E1C004C434420646973706C61790020204578E0
:080E2C00616D706C652000008F
:00000001FF
