:100000000C9446000C945D000C945D000C945D0013
:100010000C945D000C945D000C945D000C945D00EC
:100020000C945D000C945D000C945D000C945D00DC
:100030000C945D000C945D000C945D000C945D00CC
:100040000C945D000C945D000C945D000C945D00BC
:100050000C945D000C945D000C945D000C945D00AC
:100060000C945D000C945D000C945D000C945D009C
:100070000C945D000C945D000C945D000C945D008C
:100080000C945D000C945D000C945D0011241FBE67
:10009000CFEFD0E1DEBFCDBF11E0A0E0B1E0E6E000
:1000A000F5E000E00BBF02C007900D92A030B10751
:1000B000D9F70E945F000C9481020C940000DF933A
:1000C000CF93CDB7DEB76D970FB6F894DEBF0FBEF6
:1000D000CDBFE4E3F0E08FEF8083E5E3F0E08FEF66
:1000E0008083E1E3F0E01082E2E3F0E08FEF8083D1
:1000F000E0E3F0E080818E7F8D8FE0E3F0E090819F
:100100008D8D981709F0ECC0E5E3F0E08FEF808368
:1001100080E090E0A8E4B3E4898F9A8FAB8FBC8F26
:10012000698D7A8D8B8D9C8D20E030E04AE753E419
:100130000E94F601DC01CB018D8B9E8BAF8BB88FBB
:100140006D897E898F89988D20E030E040E85FE3FB
:100150000E94750188232CF481E090E09C8B8B8BAE
:100160003FC06D897E898F89988D20E03FEF4FE7F2
:1001700057E40E94F20118164CF5698D7A8D8B8D2B
:100180009C8D20E030E040E251E40E94F601DC0169
:10019000CB01BC01CD010E947901DC01CB019C8B1C
:1001A0008B8B0FC089E190E09A8B898B89899A8922
:1001B0000197F1F79A8B898B8B899C8901979C8B8E
:1001C0008B8B8B899C89009769F714C06D897E8918
:1001D0008F89988D0E947901DC01CB019C8B8B8BE0
:1001E0008B899C89988B8F878F8598890197F1F7E8
:1001F000988B8F87E5E3F0E0108280E090E0A8E440
:10020000B3E48B879C87AD87BE876B857C858D85A6
:100210009E8520E030E04AE753E40E94F601DC01CD
:10022000CB018F839887A987BA876F817885898565
:100230009A8520E030E040E85FE30E947501882362
:100240002CF481E090E09E838D833FC06F817885A0
:1002500089859A8520E03FEF4FE757E40E94F2013D
:1002600018164CF56B857C858D859E8520E030E0E9
:1002700040E251E40E94F601DC01CB01BC01CD015A
:100280000E947901DC01CB019E838D830FC089E13F
:1002900090E09C838B838B819C810197F1F79C83F9
:1002A0008B838D819E8101979E838D838D819E811D
:1002B000009769F71DCF6F81788589859A850E949F
:1002C0007901DC01CB019E838D838D819E819A8390
:1002D000898389819A810197F1F79A83898308CF6D
:1002E000E5E3F0E08FEF808303CF2FD008F481E0C7
:1002F000089557D088F09F5790F0B92F9927B7519C
:10030000A0F0D1F0660F771F881F991F1AF0BA95D9
:10031000C9F712C0B13081F05ED0B1E008955BC082
:10032000672F782F8827B85F39F0B93FCCF38695CF
:1003300077956795B395D9F73EF49095809570952C
:1003400061957F4F8F4F9F4F0895990F0008550F6C
:10035000AA0BE0E8FEEF16161706E807F907C0F04B
:1003600012161306E407F50798F0621B730B840B53
:10037000950B39F40A2661F0232B242B252B21F42D
:1003800008950A2609F4A140A6958FEF811D811DCD
:10039000089557FD9058440F551F59F05F3F71F075
:1003A0004795880F97FB991F61F09F3F79F08795DC
:1003B0000895121613061406551FF2CF4695F1DF65
:1003C00008C0161617061806991FF1CF86957105F5
:1003D000610508940895E894BB2766277727CB0129
:1003E00097F90895B2DF08F48FEF08950BD078C025
:1003F00069D028F06ED018F0952309F05AC05FC07C
:100400001124EACFC6DFA0F3959FD1F3950F50E0FA
:10041000551F629FF001729FBB27F00DB11D639FB6
:10042000AA27F00DB11DAA1F649F6627B00DA11D5C
:10043000661F829F2227B00DA11D621F739FB00D02
:10044000A11D621F839FA00D611D221F749F332772
:10045000A00D611D231F849F600D211D822F762F0B
:100460006A2F11249F5750408AF0E1F088234AF008
:10047000EE0FFF1FBB1F661F771F881F9150504054
:10048000A9F79E3F510570F014C0A6CF5F3FECF373
:10049000983EDCF3869577956795B795F795E79540
:1004A0009F5FC1F7FE2B880F911D9695879597F951
:1004B000089597F99F6780E870E060E008959FEFE6
:1004C00080EC089500240A941616170618060906EB
:1004D000089500240A9412161306140605060895BA
:1004E000092E0394000C11F4882352F0BB0F40F442
:1004F000BF2B11F460FF04C06F5F7F4F8F4F9F4F82
:060500000895F894FFCFFE
:00000001FF
