:100000000C9446000C945D000C945D000C945D0013
:100010000C945D000C945D000C945D000C945D00EC
:100020000C945D000C945D000C945D000C945D00DC
:100030000C945D000C945D000C945D000C945D00CC
:100040000C945D000C945D000C945D000C945D00BC
:100050000C945D000C945D000C945D000C945D00AC
:100060000C945D000C945D000C945D000C945D009C
:100070000C945D000C945D000C945D000C945D008C
:100080000C945D000C945D000C945D0011241FBE67
:10009000CFEFD0E1DEBFCDBF11E0A0E0B1E0E0E600
:1000A000FEE000E00BBF02C007900D92A434B10740
:1000B000D9F70E9495030C942E070C940000DF934F
:1000C000CF93CDB7DEB72F970FB6F894DEBF0FBE34
:1000D000CDBF8F87E5E6F0E08CEF8083E8E3F0E0CA
:1000E0008F858083A5E6B0E0E5E6F0E0908184E0CE
:1000F00089278C9380E090E0A0E0B0E48B879C8718
:10010000AD87BE876B857C858D859E8520E030E040
:100110004AE753E40E94CB06DC01CB018F8398872A
:10012000A987BA876F81788589859A8520E030E034
:1001300040E85FE30E94BA0588232CF481E090E058
:100140009E838D833FC06F81788589859A8520E065
:100150003FEF4FE757E40E94C70618164CF56B8532
:100160007C858D859E8520E030E040E251E40E9450
:10017000CB06DC01CB01BC01CD010E942606DC01CF
:10018000CB019E838D830FC089E190E09C838B839C
:100190008B819C810197F1F79C838B838D819E815C
:1001A00001979E838D838D819E81009769F714C08E
:1001B0006F81788589859A850E942606DC01CB01AE
:1001C0009E838D838D819E819A83898389819A8183
:1001D0000197F1F79A8389832F960FB6F894DEBFC3
:1001E0000FBECDBFCF91DF910895DF93CF93CDB7F1
:1001F000DEB72F970FB6F894DEBF0FBECDBF8F8747
:10020000E5E6F0E08DEF8083E8E3F0E08F85808322
:10021000A5E6B0E0E5E6F0E0908184E089278C93E4
:1002200080E090E0A0E0B0E48B879C87AD87BE873C
:100230006B857C858D859E8520E030E04AE753E420
:100240000E94CB06DC01CB018F839887A987BA87F0
:100250006F81788589859A8520E030E040E85FE30A
:100260000E94BA0588232CF481E090E09E838D8360
:100270003FC06F81788589859A8520E03FEF4FE701
:1002800057E40E94C70618164CF56B857C858D8552
:100290009E8520E030E040E251E40E94CB06DC0184
:1002A000CB01BC01CD010E942606DC01CB019E835F
:1002B0008D830FC089E190E09C838B838B819C812F
:1002C0000197F1F79C838B838D819E8101979E839B
:1002D0008D838D819E81009769F714C06F81788529
:1002E00089859A850E942606DC01CB019E838D8339
:1002F0008D819E819A83898389819A810197F1F703
:100300009A8389832F960FB6F894DEBF0FBECDBFB8
:10031000CF91DF910895DF93CF93CDB7DEB7E49708
:100320000FB6F894DEBF0FBECDBF80E090E0A0E72F
:10033000B1E489AB9AABABABBCAB69A97AA98BA989
:100340009CA920E030E04AE753E40E94CB06DC01A0
:10035000CB018DA79EA7AFA7B8AB6DA57EA58FA536
:1003600098A920E030E040E85FE30E94BA058823C6
:100370002CF481E090E09CA78BA73FC06DA57EA5E3
:100380008FA598A920E03FEF4FE757E40E94C706EA
:1003900018164CF569A97AA98BA99CA920E030E030
:1003A00040E251E40E94CB06DC01CB01BC01CD014F
:1003B0000E942606DC01CB019CA78BA70FC089E118
:1003C00090E09AA789A789A59AA50197F1F79AA71E
:1003D00089A78BA59CA501979CA78BA78BA59CA5FE
:1003E000009769F714C06DA57EA58FA598A90E94F6
:1003F0002606DC01CB019CA78BA78BA59CA598A703
:100400008FA38FA198A50197F1F798A78FA388E3F1
:100410000E945F0080E090E0A0EAB0E48BA39CA380
:10042000ADA3BEA36BA17CA18DA19EA120E030E075
:100430004AE753E40E94CB06DC01CB018F8F98A3DF
:10044000A9A3BAA36F8D78A189A19AA120E030E079
:1004500040E85FE30E94BA0588232CF481E090E035
:100460009E8F8D8F3FC06F8D78A189A19AA120E0CA
:100470003FEF4FE757E40E94C70618164CF56BA1F3
:100480007CA18DA19EA120E030E040E251E40E94D9
:10049000CB06DC01CB01BC01CD010E942606DC01AC
:1004A000CB019E8F8D8F0FC089E190E09C8F8B8F49
:1004B0008B8D9C8D0197F1F79C8F8B8F8D8D9E8DF1
:1004C00001979E8F8D8F8D8D9E8D009769F714C03B
:1004D0006F8D78A189A19AA10E942606DC01CB012B
:1004E0009E8F8D8F8D8D9E8D9A8F898F898D9A8D00
:1004F0000197F1F79A8F898F88E30E945F0080E06F
:1005000090E0A8ECB2E48D8B9E8BAF8BB88F6D8999
:100510007E898F89988D2BEA3AEA4AEA5EE30E9447
:10052000CB06DC01CB01898B9A8BAB8BBC8B6989A9
:100530007A898B899C8920E030E040E85FE30E9463
:10054000BA0588231CF481E0888B91C069897A8977
:100550008B899C8920E030E04FE753E40E94C70676
:1005600018160CF07BC06D897E898F89988D20E0EC
:1005700030E04AE754E40E94BE05DC01CB018C87E1
:100580009D87AE87BF876C857D858E859F8520E0A2
:1005900030E04AE753E40E94CB06DC01CB018887B8
:1005A0009987AA87BB87688579858A859B8520E09E
:1005B00030E040E85FE30E94BA0588232CF481E034
:1005C00090E09F838E833FC0688579858A859B856F
:1005D00020E03FEF4FE757E40E94C70618164CF59E
:1005E0006C857D858E859F8520E030E040E251E47A
:1005F0000E94CB06DC01CB01BC01CD010E94260686
:10060000DC01CB019F838E830FC089E190E09D8345
:100610008C838C819D810197F1F79D838C838E81E2
:100620009F8101979F838E838E819F81009769F7B9
:1006300024C0688579858A859B850E942606DC0111
:10064000CB019F838E838E819F819B838A838A8146
:100650009B810197F1F79B838A830FC069897A890F
:100660008B899C890E942606DC01CB01888B8889B6
:10067000898389818A95F1F7898388E30E945F00E5
:1006800088E00E945F0081E00E945F0086E00E9497
:100690005F008CE00E945F00E4960FB6F894DEBF26
:1006A0000FBECDBFCF91DF910895DF93CF9300D0E0
:1006B0000F92CDB7DEB789837B836A8389810E94DD
:1006C0005F000AC0EA81FB8180810E94F5008A8177
:1006D0009B8101969B838A83EA81FB8180818823A9
:1006E00089F70F900F900F90CF91DF910895DF93CE
:1006F000CF93CDB7DEB7E7E3F0E08FEF8083E4E69A
:10070000F0E08FEF8083E4E3F0E08FEF8083E1E3BC
:10071000F0E01082E5E3F0E08FEF8083E2E3F0E0C9
:100720008FEF8083CF91DF910895DF93CF93CDB783
:10073000DEB7EA970FB6F894DEBF0FBECDBF0E94BA
:1007400077030E948B01E0E3F0E080818E7F8AAF27
:10075000E0E3F0E080818D7F89AFE0E3F0E090811D
:100760008AAD981709F0F9C020E031E080E8B901BE
:100770000E9455032DE031E080ECB9010E94550341
:10078000E5E3F0E08EEF808380E090E0A8E4B3E45E
:100790008DAB9EABAFABB8AF6DA97EA98FA998AD5D
:1007A00020E030E04AE753E40E94CB06DC01CB01B5
:1007B00089AB9AABABABBCAB69A97AA98BA99CA955
:1007C00020E030E040E85FE30E94BA0588232CF483
:1007D00081E090E098AB8FA73FC069A97AA98BA967
:1007E0009CA920E03FEF4FE757E40E94C706181688
:1007F0004CF56DA97EA98FA998AD20E030E040E2CC
:1008000051E40E94CB06DC01CB01BC01CD010E946A
:100810002606DC01CB0198AB8FA70FC089E190E0E1
:100820009EA78DA78DA59EA50197F1F79EA78DA7E1
:100830008FA598A9019798AB8FA78FA598A9009726
:1008400069F714C069A97AA98BA99CA90E942606F8
:10085000DC01CB0198AB8FA78FA598A99CA78BA78C
:100860008BA59CA50197F1F79CA78BA7E5E3F0E08A
:100870008FEF808380E090E0A8E4B3E48FA398A793
:10088000A9A7BAA76FA178A589A59AA520E030E00D
:100890004AE753E40E94CB06DC01CB018BA39CA367
:1008A000ADA3BEA36BA17CA18DA19EA120E030E0F1
:1008B00040E85FE30E94BA0588232CF481E090E0D1
:1008C0009AA389A33FC06BA17CA18DA19EA120E02A
:1008D0003FEF4FE757E40E94C70618164CF56FA18B
:1008E00078A589A59AA520E030E040E251E40E9475
:1008F000CB06DC01CB01BC01CD010E942606DC0148
:10090000CB019AA389A30FC089E190E098A38F8FB0
:100910008F8D98A10197F1F798A38F8F89A19AA144
:1009200001979AA389A389A19AA1009769F70BCF90
:100930006BA17CA18DA19EA10E942606DC01CB01AA
:100940009AA389A389A19AA19E8F8D8F8D8D9E8D4B
:100950000197F1F79E8F8D8FF6CEE0E3F0E0908166
:1009600089AD981709F0F9C02CE131E080E8B901B0
:100970000E94550327E231E080ECB9010E94550343
:10098000E5E3F0E08DEF808380E090E0AAEFB3E450
:10099000898F9A8FAB8FBC8F698D7A8D8B8D9C8D53
:1009A00020E030E04AE753E40E94CB06DC01CB01B3
:1009B0008D8B9E8BAF8BB88F6D897E898F89988D3B
:1009C00020E030E040E85FE30E94BA0588232CF481
:1009D00081E090E09C8B8B8B3FC06D897E898F89F5
:1009E000988D20E03FEF4FE757E40E94C7061816A6
:1009F0004CF5698D7A8D8B8D9C8D20E030E040E246
:100A000051E40E94CB06DC01CB01BC01CD010E9468
:100A10002606DC01CB019C8B8B8B0FC089E190E01B
:100A20009A8B898B89899A890197F1F79A8B898B9F
:100A30008B899C8901979C8B8B8B8B899C890097D8
:100A400069F714C06D897E898F89988D0E9426066A
:100A5000DC01CB019C8B8B8B8B899C89988B8F873E
:100A60008F8598890197F1F7988B8F87E5E3F0E000
:100A70008FEF808380E090E0AAEFB3E48B879C87C0
:100A8000AD87BE876B857C858D859E8520E030E0B7
:100A90004AE753E40E94CB06DC01CB018F839887A1
:100AA000A987BA876F81788589859A8520E030E0AB
:100AB00040E85FE30E94BA0588232CF481E090E0CF
:100AC0009E838D833FC06F81788589859A8520E0DC
:100AD0003FEF4FE757E40E94C70618164CF56B85A9
:100AE0007C858D859E8520E030E040E251E40E94C7
:100AF000CB06DC01CB01BC01CD010E942606DC0146
:100B0000CB019E838D830FC089E190E09C838B8312
:100B10008B819C810197F1F79C838B838D819E81D2
:100B200001979E838D838D819E81009769F70BCEFF
:100B30006F81788589859A850E942606DC01CB0124
:100B40009E838D838D819E819A83898389819A81F9
:100B50000197F1F79A838983F6CD28E331E080E8A5
:100B6000B9010E9455032DE331E080ECB9010E94E8
:100B70005503E9CD97D008F481E008950CD0CDC09D
:100B8000C5D040F0BCD030F021F45F3F19F0AEC0CA
:100B90005111F7C0B1C0D2D098F39923C9F35523AE
:100BA000B1F3951B550BBB27AA2762177307840760
:100BB00038F09F5F5F4F220F331F441FAA1FA9F316
:100BC00033D00E2E3AF0E0E830D091505040E69508
:100BD000001CCAF729D0FE2F27D0660F771F881F69
:100BE000BB1F261737074807AB07B0E809F0BB0B58
:100BF000802DBF01FF2793585F4F2AF09E3F51057C
:100C000068F074C0BEC05F3FECF3983EDCF386959D
:100C100077956795B795F7959F5FC9F7880F911DF1
:100C20009695879597F90895E1E0660F771F881FDD
:100C3000BB1F621773078407BA0720F0621B730B90
:100C4000840BBA0BEE1F88F7E09508957FD088F0EB
:100C50009F5790F0B92F9927B751A0F0D1F0660FA8
:100C6000771F881F991F1AF0BA95C9F712C0B130C3
:100C700081F086D0B1E0089583C0672F782F882750
:100C8000B85F39F0B93FCCF3869577956795B39502
:100C9000D9F73EF490958095709561957F4F8F4F71
:100CA0009F4F0895990F0008550FAA0BE0E8FEEF3B
:100CB00016161706E807F907C0F012161306E40720
:100CC000F50798F0621B730B840B950B39F40A2619
:100CD00061F0232B242B252B21F408950A2609F4F7
:100CE000A140A6958FEF811D811D089597F99F67FB
:100CF00080E870E060E008959FEF80EC08950024A4
:100D00000A941616170618060906089500240A9470
:100D100012161306140605060895092E0394000CF6
:100D200011F4882352F0BB0F40F4BF2B11F460FF85
:100D300004C06F5F7F4F8F4F9F4F089557FD9058AE
:100D4000440F551F59F05F3F71F04795880F97FB8F
:100D5000991F61F09F3F79F0879508951216130649
:100D60001406551FF2CF4695F1DF08C01616170678
:100D70001806991FF1CF86957105610508940895AD
:100D8000E894BB2766277727CB0197F908958ADF78
:100D900008F48FEF08950BD0C0CFB1DF28F0B6DF95
:100DA00018F0952309F0A2CFA7CF1124EACFC6DF10
:100DB000A0F3959FD1F3950F50E0551F629FF0016E
:100DC000729FBB27F00DB11D639FAA27F00DB11DC7
:100DD000AA1F649F6627B00DA11D661F829F222750
:100DE000B00DA11D621F739FB00DA11D621F839FD7
:100DF000A00D611D221F749F3327A00D611D231FAD
:100E0000849F600D211D822F762F6A2F11249F57FA
:100E100050408AF0E1F088234AF0EE0FFF1FBB1F1D
:100E2000661F771F881F91505040A9F79E3F5105BC
:100E300070F05CCFA6CF5F3FECF3983EDCF3869575
:100E400077956795B795F795E7959F5FC1F7FE2B67
:100E5000880F911D9695879597F90895F894FFCF7F
:100E6000202020737769746368203120003230308D
:100E70006D7320426C696E6B696E6700202073771A
:100E800069746368203200203530306D7320626CE5
:100E9000696E6B696E6721002020202000202020D1
:040EA000202000000E
:00000001FF
